{
  "_format": "hh-sol-artifact-1",
  "contractName": "CryptoPayment",
  "sourceName": "contracts/payment/simplePayment.sol",
  "abi": [
    {
      "inputs": [],
      "stateMutability": "nonpayable",
      "type": "constructor"
    },
    {
      "anonymous": false,
      "inputs": [
        {
          "indexed": false,
          "internalType": "address",
          "name": "_from",
          "type": "address"
        },
        {
          "indexed": false,
          "internalType": "uint256",
          "name": "_amount",
          "type": "uint256"
        }
      ],
      "name": "TransferReceived",
      "type": "event"
    },
    {
      "anonymous": false,
      "inputs": [
        {
          "indexed": false,
          "internalType": "address",
          "name": "_from",
          "type": "address"
        },
        {
          "indexed": false,
          "internalType": "address",
          "name": "_destAddr",
          "type": "address"
        },
        {
          "indexed": false,
          "internalType": "uint256",
          "name": "_amount",
          "type": "uint256"
        }
      ],
      "name": "TransferSent",
      "type": "event"
    },
    {
      "inputs": [
        {
          "internalType": "address payable",
          "name": "_to",
          "type": "address"
        }
      ],
      "name": "transferCrypto",
      "outputs": [],
      "stateMutability": "payable",
      "type": "function"
    }
  ],
  "bytecode": "0x608060405234801561001057600080fd5b50336000806101000a81548173ffffffffffffffffffffffffffffffffffffffff021916908373ffffffffffffffffffffffffffffffffffffffff16021790555061043c806100606000396000f3fe60806040526004361061001e5760003560e01c80630f86ac5814610023575b600080fd5b61003d600480360381019061003891906101f7565b61003f565b005b8073ffffffffffffffffffffffffffffffffffffffff166108fc6064606234610068919061025d565b61007291906102e6565b9081150290604051600060405180830381858888f1935050505015801561009d573d6000803e3d6000fd5b5060008054906101000a900473ffffffffffffffffffffffffffffffffffffffff1673ffffffffffffffffffffffffffffffffffffffff166108fc60646002346100e7919061025d565b6100f191906102e6565b9081150290604051600060405180830381858888f1935050505015801561011c573d6000803e3d6000fd5b507ff1b03f708b9c39f453fe3f0cef84164c7d6f7df836df0796e1e9c2bce6ee397e333460405161014e929190610347565b60405180910390a17ffda3a3e0e1479b43cb1c701f7576187f4c4ad80768d627387e00184302f7d88e338234604051610189939291906103cf565b60405180910390a150565b600080fd5b600073ffffffffffffffffffffffffffffffffffffffff82169050919050565b60006101c482610199565b9050919050565b6101d4816101b9565b81146101df57600080fd5b50565b6000813590506101f1816101cb565b92915050565b60006020828403121561020d5761020c610194565b5b600061021b848285016101e2565b91505092915050565b6000819050919050565b7f4e487b7100000000000000000000000000000000000000000000000000000000600052601160045260246000fd5b600061026882610224565b915061027383610224565b9250817fffffffffffffffffffffffffffffffffffffffffffffffffffffffffffffffff04831182151516156102ac576102ab61022e565b5b828202905092915050565b7f4e487b7100000000000000000000000000000000000000000000000000000000600052601260045260246000fd5b60006102f182610224565b91506102fc83610224565b92508261030c5761030b6102b7565b5b828204905092915050565b600061032282610199565b9050919050565b61033281610317565b82525050565b61034181610224565b82525050565b600060408201905061035c6000830185610329565b6103696020830184610338565b9392505050565b6000819050919050565b600061039561039061038b84610199565b610370565b610199565b9050919050565b60006103a78261037a565b9050919050565b60006103b98261039c565b9050919050565b6103c9816103ae565b82525050565b60006060820190506103e46000830186610329565b6103f160208301856103c0565b6103fe6040830184610338565b94935050505056fea2646970667358221220292ff54c822d6612441f9cb6b2b366191747705246246f4bef9300db6efba9ed64736f6c634300080b0033",
  "linkReferences": {},
  "deployedLinkReferences": {}
}